PAY000000001CUST000001ACC00000000100000025000EURMOBILE    ESDEST00000120260501
PAY000000002CUST000002ACC00000000200000150000EURWEB       ESDEST00000220260501
PAY000000003CUST000003ACC00000000300000008000USDMOBILE    ESDEST00000320260501
PAY000000004CUST000004ACC00000000400000200000EURBRANCH    ESDEST00000420260501
